{
	"contractName": "DRM",
	"abi": [
		{
			"anonymous": false,
			"inputs": [
				{
					"indexed": false,
					"internalType": "uint256",
					"name": "assetId",
					"type": "uint256"
				},
				{
					"indexed": false,
					"internalType": "string",
					"name": "name",
					"type": "string"
				},
				{
					"indexed": false,
					"internalType": "string",
					"name": "ipfsHash",
					"type": "string"
				},
				{
					"indexed": false,
					"internalType": "address",
					"name": "owner",
					"type": "address"
				}
			],
			"name": "AssetRegistered",
			"type": "event"
		},
		{
			"anonymous": false,
			"inputs": [
				{
					"indexed": false,
					"internalType": "uint256",
					"name": "assetId",
					"type": "uint256"
				},
				{
					"indexed": false,
					"internalType": "address",
					"name": "licensee",
					"type": "address"
				}
			],
			"name": "LicenseIssued",
			"type": "event"
		},
		{
			"anonymous": false,
			"inputs": [
				{
					"indexed": false,
					"internalType": "uint256",
					"name": "assetId",
					"type": "uint256"
				},
				{
					"indexed": false,
					"internalType": "address",
					"name": "oldOwner",
					"type": "address"
				},
				{
					"indexed": false,
					"internalType": "address",
					"name": "newOwner",
					"type": "address"
				}
			],
			"name": "OwnershipTransferred",
			"type": "event"
		},
		{
			"inputs": [],
			"name": "assetCounter",
			"outputs": [
				{
					"internalType": "uint256",
					"name": "",
					"type": "uint256"
				}
			],
			"stateMutability": "view",
			"type": "function"
		},
		{
			"inputs": [
				{
					"internalType": "uint256",
					"name": "",
					"type": "uint256"
				}
			],
			"name": "assets",
			"outputs": [
				{
					"internalType": "uint256",
					"name": "id",
					"type": "uint256"
				},
				{
					"internalType": "string",
					"name": "name",
					"type": "string"
				},
				{
					"internalType": "string",
					"name": "ipfsHash",
					"type": "string"
				},
				{
					"internalType": "address",
					"name": "owner",
					"type": "address"
				},
				{
					"internalType": "bool",
					"name": "isLicensed",
					"type": "bool"
				},
				{
					"internalType": "address",
					"name": "licensee",
					"type": "address"
				}
			],
			"stateMutability": "view",
			"type": "function"
		},
		{
			"inputs": [
				{
					"internalType": "address",
					"name": "",
					"type": "address"
				},
				{
					"internalType": "uint256",
					"name": "",
					"type": "uint256"
				}
			],
			"name": "userAssets",
			"outputs": [
				{
					"internalType": "uint256",
					"name": "",
					"type": "uint256"
				}
			],
			"stateMutability": "view",
			"type": "function"
		},
		{
			"inputs": [
				{
					"internalType": "string",
					"name": "_name",
					"type": "string"
				},
				{
					"internalType": "string",
					"name": "_ipfsHash",
					"type": "string"
				}
			],
			"name": "registerAsset",
			"outputs": [],
			"stateMutability": "nonpayable",
			"type": "function"
		},
		{
			"inputs": [
				{
					"internalType": "uint256",
					"name": "_assetId",
					"type": "uint256"
				},
				{
					"internalType": "address",
					"name": "_licensee",
					"type": "address"
				}
			],
			"name": "issueLicense",
			"outputs": [],
			"stateMutability": "nonpayable",
			"type": "function"
		},
		{
			"inputs": [
				{
					"internalType": "uint256",
					"name": "_assetId",
					"type": "uint256"
				},
				{
					"internalType": "address",
					"name": "_newOwner",
					"type": "address"
				}
			],
			"name": "transferOwnership",
			"outputs": [],
			"stateMutability": "nonpayable",
			"type": "function"
		},
		{
			"inputs": [
				{
					"internalType": "uint256",
					"name": "_assetId",
					"type": "uint256"
				}
			],
			"name": "getAsset",
			"outputs": [
				{
					"internalType": "string",
					"name": "",
					"type": "string"
				},
				{
					"internalType": "string",
					"name": "",
					"type": "string"
				},
				{
					"internalType": "address",
					"name": "",
					"type": "address"
				},
				{
					"internalType": "bool",
					"name": "",
					"type": "bool"
				},
				{
					"internalType": "address",
					"name": "",
					"type": "address"
				}
			],
			"stateMutability": "view",
			"type": "function"
		},
		{
			"inputs": [
				{
					"internalType": "address",
					"name": "_user",
					"type": "address"
				}
			],
			"name": "getUserAssets",
			"outputs": [
				{
					"internalType": "uint256[]",
					"name": "",
					"type": "uint256[]"
				}
			],
			"stateMutability": "view",
			"type": "function"
		}
	],
	"bytecode": "0x608060405234801561001057600080fd5b5061164a806100206000396000f3fe608060405234801561001057600080fd5b50600436106100885760003560e01c80639fe4000a1161005b5780639fe4000a14610127578063abb5d45314610143578063cf35bdd01461015f578063eac8f5b81461019457610088565b806329507f731461008d5780634b918786146100a95780636a8a69aa146100c7578063765ff061146100f7575b600080fd5b6100a760048036038101906100a29190610ed0565b6101c8565b005b6100b16103bc565b6040516100be9190611186565b60405180910390f35b6100e160048036038101906100dc9190610dff565b6103c2565b6040516100ee9190611186565b60405180910390f35b610111600480360381019061010c9190610dd6565b6103f3565b60405161011e9190611083565b60405180910390f35b610141600480360381019061013c9190610e3b565b61048a565b005b61015d60048036038101906101589190610ed0565b6106f9565b005b61017960048036038101906101749190610ea7565b6108be565b60405161018b96959493929190611254565b60405180910390f35b6101ae60048036038101906101a99190610ea7565b610a57565b6040516101bf9594939291906110a5565b60405180910390f35b60008083815260200190815260200160002060030160009054906101000a900473ffffffffffffffffffffffffffffffffffffffff1673ffffffffffffffffffffffffffffffffffffffff163373ffffffffffffffffffffffffffffffffffffffff161461026b576040517f08c379a000000000000000000000000000000000000000000000000000000000815260040161026290611126565b60405180910390fd5b600080600084815260200190815260200160002060030160009054906101000a900473ffffffffffffffffffffffffffffffffffffffff1690508160008085815260200190815260200160002060030160006101000a81548173ffffffffffffffffffffffffffffffffffffffff021916908373ffffffffffffffffffffffffffffffffffffffff160217905550600080600085815260200190815260200160002060030160146101000a81548160ff021916908315150217905550600080600085815260200190815260200160002060040160006101000a81548173ffffffffffffffffffffffffffffffffffffffff021916908373ffffffffffffffffffffffffffffffffffffffff1602179055507f16b85f49bf01212961345d3016c9a531894accf62eb7680f2045d79185cc0ec08382846040516103af939291906111ca565b60405180910390a1505050565b60025481565b600160205281600052604060002081815481106103de57600080fd5b90600052602060002001600091509150505481565b6060600160008373ffffffffffffffffffffffffffffffffffffffff1673ffffffffffffffffffffffffffffffffffffffff16815260200190815260200160002080548060200260200160405190810160405280929190818152602001828054801561047e57602002820191906000526020600020905b81548152602001906001019080831161046a575b50505050509050919050565b60008151116104ce576040517f08c379a00000000000000000000000000000000000000000000000000000000081526004016104c590611106565b60405180910390fd5b600260008154809291906104e19061145b565b91905055506040518060c0016040528060025481526020018381526020018281526020013373ffffffffffffffffffffffffffffffffffffffff168152602001600015158152602001600073ffffffffffffffffffffffffffffffffffffffff16815250600080600254815260200190815260200160002060008201518160000155602082015181600101908051906020019061057f929190610ca1565b50604082015181600201908051906020019061059c929190610ca1565b5060608201518160030160006101000a81548173ffffffffffffffffffffffffffffffffffffffff021916908373ffffffffffffffffffffffffffffffffffffffff16021790555060808201518160030160146101000a81548160ff02191690831515021790555060a08201518160040160006101000a81548173ffffffffffffffffffffffffffffffffffffffff021916908373ffffffffffffffffffffffffffffffffffffffff160217905550905050600160003373ffffffffffffffffffffffffffffffffffffffff1673ffffffffffffffffffffffffffffffffffffffff16815260200190815260200160002060025490806001815401808255809150506001900390600052602060002001600090919091909150557fb51382179d2584eb7977fe3644f881853df1936d8aa5db231dbc759725896b5f6002548383336040516106ed9493929190611201565b60405180910390a15050565b60008083815260200190815260200160002060030160009054906101000a900473ffffffffffffffffffffffffffffffffffffffff1673ffffffffffffffffffffffffffffffffffffffff163373ffffffffffffffffffffffffffffffffffffffff161461079c576040517f08c379a000000000000000000000000000000000000000000000000000000000815260040161079390611166565b60405180910390fd5b60008083815260200190815260200160002060030160149054906101000a900460ff16156107ff576040517f08c379a00000000000000000000000000000000000000000000000000000000081526004016107f690611146565b60405180910390fd5b600160008084815260200190815260200160002060030160146101000a81548160ff0219169083151502179055508060008084815260200190815260200160002060040160006101000a81548173ffffffffffffffffffffffffffffffffffffffff021916908373ffffffffffffffffffffffffffffffffffffffff1602179055507fede4da48509d6c07b9b5f7e89b4b81dc9f52cc0dcb63668f5098954bf3081c5182826040516108b29291906111a1565b60405180910390a15050565b60006020528060005260406000206000915090508060000154908060010180546108e7906113f8565b80601f0160208091040260200160405190810160405280929190818152602001828054610913906113f8565b80156109605780601f1061093557610100808354040283529160200191610960565b820191906000526020600020905b81548152906001019060200180831161094357829003601f168201915b505050505090806002018054610975906113f8565b80601f01602080910402602001604051908101604052809291908181526020018280546109a1906113f8565b80156109ee5780601f106109c3576101008083540402835291602001916109ee565b820191906000526020600020905b8154815290600101906020018083116109d157829003601f168201915b5050505050908060030160009054906101000a900473ffffffffffffffffffffffffffffffffffffffff16908060030160149054906101000a900460ff16908060040160009054906101000a900473ffffffffffffffffffffffffffffffffffffffff16905086565b6060806000806000806000808881526020019081526020016000206040518060c001604052908160008201548152602001600182018054610a97906113f8565b80601f0160208091040260200160405190810160405280929190818152602001828054610ac3906113f8565b8015610b105780601f10610ae557610100808354040283529160200191610b10565b820191906000526020600020905b815481529060010190602001808311610af357829003601f168201915b50505050508152602001600282018054610b29906113f8565b80601f0160208091040260200160405190810160405280929190818152602001828054610b55906113f8565b8015610ba25780601f10610b7757610100808354040283529160200191610ba2565b820191906000526020600020905b815481529060010190602001808311610b8557829003601f168201915b505050505081526020016003820160009054906101000a900473ffffffffffffffffffffffffffffffffffffffff1673ffffffffffffffffffffffffffffffffffffffff1673ffffffffffffffffffffffffffffffffffffffff1681526020016003820160149054906101000a900460ff161515151581526020016004820160009054906101000a900473ffffffffffffffffffffffffffffffffffffffff1673ffffffffffffffffffffffffffffffffffffffff1673ffffffffffffffffffffffffffffffffffffffff1681525050905080602001518160400151826060015183608001518460a00151955095509550955095505091939590929450565b828054610cad906113f8565b90600052602060002090601f016020900481019282610ccf5760008555610d16565b82601f10610ce857805160ff1916838001178555610d16565b82800160010185558215610d16579182015b82811115610d15578251825591602001919060010190610cfa565b5b509050610d239190610d27565b5090565b5b80821115610d40576000816000905550600101610d28565b5090565b6000610d57610d52846112e8565b6112c3565b905082815260208101848484011115610d6f57600080fd5b610d7a8482856113b6565b509392505050565b600081359050610d91816115e6565b92915050565b600082601f830112610da857600080fd5b8135610db8848260208601610d44565b91505092915050565b600081359050610dd0816115fd565b92915050565b600060208284031215610de857600080fd5b6000610df684828501610d82565b91505092915050565b60008060408385031215610e1257600080fd5b6000610e2085828601610d82565b9250506020610e3185828601610dc1565b9150509250929050565b60008060408385031215610e4e57600080fd5b600083013567ffffffffffffffff811115610e6857600080fd5b610e7485828601610d97565b925050602083013567ffffffffffffffff811115610e9157600080fd5b610e9d85828601610d97565b9150509250929050565b600060208284031215610eb957600080fd5b6000610ec784828501610dc1565b91505092915050565b60008060408385031215610ee357600080fd5b6000610ef185828601610dc1565b9250506020610f0285828601610d82565b9150509250929050565b6000610f188383611065565b60208301905092915050565b610f2d8161136e565b82525050565b6000610f3e82611329565b610f48818561134c565b9350610f5383611319565b8060005b83811015610f84578151610f6b8882610f0c565b9750610f768361133f565b925050600181019050610f57565b5085935050505092915050565b610f9a81611380565b82525050565b6000610fab82611334565b610fb5818561135d565b9350610fc58185602086016113c5565b610fce81611531565b840191505092915050565b6000610fe660198361135d565b9150610ff182611542565b602082019050919050565b600061100960178361135d565b91506110148261156b565b602082019050919050565b600061102c60108361135d565b915061103782611594565b602082019050919050565b600061104f601d8361135d565b915061105a826115bd565b602082019050919050565b61106e816113ac565b82525050565b61107d816113ac565b82525050565b6000602082019050818103600083015261109d8184610f33565b905092915050565b600060a08201905081810360008301526110bf8188610fa0565b905081810360208301526110d38187610fa0565b90506110e26040830186610f24565b6110ef6060830185610f91565b6110fc6080830184610f24565b9695505050505050565b6000602082019050818103600083015261111f81610fd9565b9050919050565b6000602082019050818103600083015261113f81610ffc565b9050919050565b6000602082019050818103600083015261115f8161101f565b9050919050565b6000602082019050818103600083015261117f81611042565b9050919050565b600060208201905061119b6000830184611074565b92915050565b60006040820190506111b66000830185611074565b6111c36020830184610f24565b9392505050565b60006060820190506111df6000830186611074565b6111ec6020830185610f24565b6111f96040830184610f24565b949350505050565b60006080820190506112166000830187611074565b81810360208301526112288186610fa0565b9050818103604083015261123c8185610fa0565b905061124b6060830184610f24565b95945050505050565b600060c0820190506112696000830189611074565b818103602083015261127b8188610fa0565b9050818103604083015261128f8187610fa0565b905061129e6060830186610f24565b6112ab6080830185610f91565b6112b860a0830184610f24565b979650505050505050565b60006112cd6112de565b90506112d9828261142a565b919050565b6000604051905090565b600067ffffffffffffffff82111561130357611302611502565b5b61130c82611531565b9050602081019050919050565b6000819050602082019050919050565b600081519050919050565b600081519050919050565b6000602082019050919050565b600082825260208201905092915050565b600082825260208201905092915050565b60006113798261138c565b9050919050565b60008115159050919050565b600073ffffffffffffffffffffffffffffffffffffffff82169050919050565b6000819050919050565b82818337600083830152505050565b60005b838110156113e35780820151818401526020810190506113c8565b838111156113f2576000848401525b50505050565b6000600282049050600182168061141057607f821691505b60208210811415611424576114236114d3565b5b50919050565b61143382611531565b810181811067ffffffffffffffff8211171561145257611451611502565b5b80604052505050565b6000611466826113ac565b91507fffffffffffffffffffffffffffffffffffffffffffffffffffffffffffffffff821415611499576114986114a4565b5b600182019050919050565b7f4e487b7100000000000000000000000000000000000000000000000000000000600052601160045260246000fd5b7f4e487b7100000000000000000000000000000000000000000000000000000000600052602260045260246000fd5b7f4e487b7100000000000000000000000000000000000000000000000000000000600052604160045260246000fd5b6000601f19601f8301169050919050565b7f4950465320686173682063616e6e6f7420626520656d70747900000000000000600082015250565b7f4f6e6c79206f776e65722063616e207472616e73666572000000000000000000600082015250565b7f416c7265616479206c6963656e73656400000000000000000000000000000000600082015250565b7f4f6e6c79206f776e65722063616e206973737565206c6963656e736573000000600082015250565b6115ef8161136e565b81146115fa57600080fd5b50565b611606816113ac565b811461161157600080fd5b5056fea2646970667358221220c8af5813bc9a59537e2265221fd7ea4eb193604d8458d8004bb97a37ee27a18b64736f6c63430008020033",
	"immutableReferences": {},
	"source": "// SPDX-License-Identifier: MIT\r\npragma solidity ^0.8.2;\r\n\r\ncontract DRM {\r\n    struct DigitalAsset {\r\n        uint256 id;\r\n        string name;\r\n        string ipfsHash;  // Store file hash for verification\r\n        address owner;\r\n        bool isLicensed;\r\n        address licensee;\r\n    }\r\n\r\n    mapping(uint256 => DigitalAsset) public assets;\r\n    mapping(address => uint256[]) public userAssets;\r\n    uint256 public assetCounter;\r\n\r\n    event AssetRegistered(uint256 assetId, string name, string ipfsHash, address owner);\r\n    event LicenseIssued(uint256 assetId, address licensee);\r\n    event OwnershipTransferred(uint256 assetId, address oldOwner, address newOwner);\r\n\r\n    // Register a new digital asset\r\n    function registerAsset(string memory _name, string memory _ipfsHash) public {\r\n        require(bytes(_ipfsHash).length > 0, \"IPFS hash cannot be empty\");\r\n        \r\n        assetCounter++;\r\n        assets[assetCounter] = DigitalAsset(assetCounter, _name, _ipfsHash, msg.sender, false, address(0));\r\n        userAssets[msg.sender].push(assetCounter);\r\n\r\n        emit AssetRegistered(assetCounter, _name, _ipfsHash, msg.sender);\r\n    }\r\n\r\n    // Issue a license for the asset\r\n    function issueLicense(uint256 _assetId, address _licensee) public {\r\n        require(msg.sender == assets[_assetId].owner, \"Only owner can issue licenses\");\r\n        require(!assets[_assetId].isLicensed, \"Already licensed\");\r\n\r\n        assets[_assetId].isLicensed = true;\r\n        assets[_assetId].licensee = _licensee;\r\n\r\n        emit LicenseIssued(_assetId, _licensee);\r\n    }\r\n\r\n    // Transfer ownership of the asset\r\n    function transferOwnership(uint256 _assetId, address _newOwner) public {\r\n        require(msg.sender == assets[_assetId].owner, \"Only owner can transfer\");\r\n        \r\n        address oldOwner = assets[_assetId].owner;\r\n        assets[_assetId].owner = _newOwner;\r\n        assets[_assetId].isLicensed = false; // Reset license upon transfer\r\n        assets[_assetId].licensee = address(0); // Clear licensee info\r\n        \r\n        emit OwnershipTransferred(_assetId, oldOwner, _newOwner);\r\n    }\r\n\r\n    // Get asset details\r\n    function getAsset(uint256 _assetId) public view returns (\r\n        string memory, string memory, address, bool, address\r\n    ) {\r\n        DigitalAsset memory asset = assets[_assetId];\r\n        return (asset.name, asset.ipfsHash, asset.owner, asset.isLicensed, asset.licensee);\r\n    }\r\n\r\n    // Get list of assets owned by a user\r\n    function getUserAssets(address _user) public view returns (uint256[] memory) {\r\n        return userAssets[_user];\r\n    }\r\n}\r\n",
	"sourcePath": "C:\\Users\\Anushka Gupta\\drm-frontend\\contracts\\DRM.sol",
	"compiler": {
		"name": "solc",
		"version": "0.8.2+commit.661d1103.Emscripten.clang"
	},
	"schemaVersion": "3.4.16",
	"updatedAt": "2025-03-03T04:34:04.611Z",
	"devdoc": {
		"kind": "dev",
		"methods": {},
		"version": 1
	},
	"userdoc": {
		"kind": "user",
		"methods": {},
		"version": 1
	}
}